:10000000802D00203D4B0000394B0000394B000093
:1000100000000000000000000000000000000000E0
:10002000000000000000000000000000394B00004C
:100030000000000000000000394B0000394B0000B8
:10004000394B0000394B0000394B0000394B0000A0
:10005000D5380000394B0000394B0000394B000007
:10006000394B0000353E0000453E0000553E000083
:10007000653E0000753E0000853E0000394B0000E3
:10008000394B0000394B0000E94A0000F94A0000F2
:10009000094B0000194B0000294B0000394B0000B0
:1000A000394B0000394B0000394B0000394B000040
:1000B0000000000010B5064C2378002B07D1054B3B
:1000C000002B02D0044800E000BF0123237010BDC4
:1000D0007804002000000000DC8E0000084B10B502
:1000E000002B03D00749084800E000BF0748036819
:1000F000002B00D110BD064B002BFBD09847F9E731
:10010000000000007C040020DC8E0000DC8E00007B
:100110000000000001680722CB691A42FCD1704739
:10012000F0B5DE4657464E464546E0B58BB0050075
:100130000F001600296008009B4B98479B4A116AE4
:10014000841C0123A3400B43136209A9337B0B706A
:100150001430C4B22000964B98472000954B984726
:10016000307B0021944B98473B681C209B0706D5A9
:100170000BB03CBC90469946A246AB46F0BD3B68EE
:100180001738DB07F4D42868874B99469847040052
:100190008A498B4B9847A4008A4BE55000232B7665
:1001A0006B7600246B83AB832522AC542B62143313
:1001B0003B602B6898461800C8478146802308AAF0
:1001C0001370547001239370D470F069376A00285B
:1001D00000D1A7E008AB1870022308AA5370000CE6
:1001E000C0B21100784B9847002F00D19FE008ABB8
:1001F0001F70022308AA53703F0CF8B21100724B13
:100200009847B38AEB80F38A2B81337E8022002BC0
:1002100004D16E4B9B789B07DB0FDA01B168336921
:100220000B4313432422B25C002A02D08022D20561
:100230001343B26A13432C22B25C002A03D18022FA
:100240009204914202D18022120513432D22B25C06
:10025000002A02D08022120413432E22B25C002A0C
:1002600002D08022D203134342461268134342460F
:10027000136080235B00536048461430C0B2544B77
:10028000984705000790FA27BF0033685F437368FB
:100290009A46504CA047029003917800A0470090E6
:1002A0000191308E6843A0474B4B9B464B4A4C4BC9
:1002B000D8474C4D00224C4BA8470490059138007C
:1002C000A04702000B0004980599D84702000B00D4
:1002D000464C02980399A047009A019BA847002228
:1002E000434BA047009A019B424CA047424B984782
:1002F000040080239B04B2689A421ED00300402071
:10030000FF2C00D934E700260020FF241C403606CD
:1003100034430004FF231B04184004434346DC60BD
:10032000002025E700214046344B984752E7012141
:100330004046324B9847070059E7FA27BF0053461B
:100340005F430298039902000B00A84700900191B7
:100350003800204B98470022294BD84702000B0059
:1003600000980199234EB0470022214B1F4EB04701
:10037000214B9847061E0CD039000798214B98470F
:100380000238801B2300FF2C0CD8FF28BDD9402049
:10039000EEE67900481E079B9C466044194B98473F
:1003A0000138EFE74020E3E68D3D00000004004007
:1003B000FD48000071480000C93B0000990800009A
:1003C000C93D0000400D0020254A000000200041EA
:1003D0001949000005670000715B000095D626E80A
:1003E0000B2E113EE94E0000000024407160000019
:1003F0000000F03F095500009D660000153C00001C
:10040000000008407D4D0000F0B5C64600B5040070
:100410000768114DA84726682000A84733680222C4
:100420009343336020680D4B984698471F2318402C
:100430000126310081406133094AD150094B984768
:100440002068C047084B9847084B98472000A847AA
:100450003E6004BC9046F0BD15010000053E000062
:1004600000E100E02D3800004D4900006D3800002B
:1004700003681A7E920707D502221A765B8B9B07C8
:100480004120DB17184070475A8B520706D5596830
:10049000C02292020A435A601820F4E70020F2E7D3
:1004A00030B50268002301240225117E21420BD1C0
:1004B000117E294206D101339BB201899942F4D8B9
:1004C000122002E0002000E0002030BD10B50468DA
:1004D00062688023DB02134363606162024B9847CA
:1004E0000123237610BDC046A1040000F0B5DE460E
:1004F00057464E464546E0B583B006008946056836
:100500004C882B681B01DB0F9A464B7A002B2BD1B2
:100510006B68584A13406B604B461B7A002B27D1FF
:100520004B461B885B004A46527A920313430122D2
:1005300013436B623000504B984701905346002B99
:1005400003D04B465B88012B3BD06B68494A134074
:100550006B60019B002B3AD0019803B03CBC9046E5
:100560009946A246AB46F0BD897A444B9847CFE7FF
:100570004B461B885B004A46527A92031343802203
:10058000120213436B6230003B4B984701906B683B
:10059000384A13406B600028DED13000384B984752
:1005A00001900028D8D14B461B881B0A78221343A0
:1005B0005B004A46527A920301210A4313436B625D
:1005C000B8E76A688023DB0213436B60C1E7300041
:1005D0002B4B984701900028BED1013CA4B2804625
:1005E000284B9B4615E0012C20D03000264B984725
:1005F00043465F1CBFB22823EB5C4A465268414623
:10060000535430001C4B9847013CA4B2002815D12C
:10061000B8465C4514D06B8B9B0627D5F37A002B2C
:10062000E3D05346002BDED1002CDED16A68802354
:10063000DB0213436B60013CA4B2EAE7B8460190C9
:10064000B37A002B09D130000F4B98472823EA5C7E
:100650004B465B6841465A547EE730000A4B984748
:100660006A68C0239B0213436B60ECE7412301934C
:1006700072E7C046FFFFFBFFA1040000CD040000AD
:1006800071040000FFFF000015010000F0B5DE4618
:1006900057464E464546E0B583B006000F00056854
:1006A0004C88324B98477B7A002B1DD16B68304ABF
:1006B00013406B603B7A002B1BD03B885B007A7A3F
:1006C000920313438022120213436B623000294BC2
:1006D00098470190002813D0019803B03CBC904685
:1006E0009946A246AB46F0BDB97A3000224B9847F6
:1006F000DCE73B885B007A7A920313436B62E5E7A1
:1007000030001E4B9847031E0190E5D1A0460024FF
:1007100020339946154B9B46164B9A46444515D0B7
:100720006B8B4A4613421DD03000D8477B681A5D58
:100730002823EA543000D047002806D16B8B0134BF
:100740005B07EBD51E23019300E00190B37A002BE9
:10075000C2D03000054B98476A68C0239B02134300
:100760006B60B9E741230193B6E7C046150100006D
:10077000FFFFFBFFA1040000CD0400007104000096
:1007800010B5838B9BB20522002B01D0100010BD49
:1007900001338372C372024B98470200F6E7C046EA
:1007A000ED04000010B5838B9BB20522002B01D015
:1007B000100010BD01338372C372024B98470200D0
:1007C000F6E7C0468D06000001680722CB691A4291
:1007D000FCD1704770B5040006683268458B838B86
:1007E000ED1AADB2838B013B9BB2838313011DD500
:1007F000C37A002B03D0838B9BB2012B10D0A38B29
:100800009BB2002B02D1A37A002B1CD12000124BEB
:100810009847236A5D192823F35CDBB22B7070BD07
:1008200072688023DB0213437360E8E7C37A002B0E
:10083000E5D0838B9BB2002BE1D172688023DB0271
:1008400013437360DBE72000034B98477268C023B3
:100850009B0213437360D9E7C907000070B5040019
:1008600005686B8B5B0703D51E222523C25470BD20
:10087000468B838BF61AB6B2838B013B9BB2838384
:10088000044B9847236A9E193378DBB22822AB5475
:10089000EDE7C046C907000070B58000754BC4582D
:1008A00025682B681B01DA0F637E267E1E40638B52
:1008B0009BB2002B03D1A38B9BB2002B23D1638B64
:1008C0009BB2002B08D0A38B9BB2002B04D1253305
:1008D000E35C052B00D16DE0638B9BB2002B24D031
:1008E000A38B9BB2002B20D06B8B9B0600D581E0A5
:1008F000002A04D0A38B9BB2012B00D17AE04122C5
:100900002523E25411E02B7EDB0707D501232B764C
:100910006B8B9B072ED541222523E254A38B9BB2E0
:1009200063832523E35C052B38D0638B9BB2002BBC
:1009300007D0A38B9BB2002B03D12533E35C052B9F
:1009400064D02523E35C052B13D02523E35C002B27
:100950000FD003232B7500236383A3832533E35C2C
:10096000412B03D0A37A002B00D075E0730700D58C
:100970007BE070BD6B8B5B07D0D518222523E2543A
:100980000023A383A37A002BC8D020003A4B9847BA
:100990006A68C0239B0213436B60BFE71F33E35CAD
:1009A000002B03D02000354B9847BEE72000344B86
:1009B0009847BAE71F33E35C002B00D08CE7033382
:1009C0002B750023638325330022E254A37A002B86
:1009D00007D101232B76F307A7D5E36820009847BA
:1009E000A3E72000244B98476A68C0239B02134367
:1009F0006B60F0E72423E35C002B03D12000204B45
:100A0000984792E720001D4B98478EE71F33E35C21
:100A1000012B96D12B7E9B0701D502232B76032336
:100A20002B750023638325330022E254B30703D5DB
:100A30002423E35C012B0BD0F30700D481E72423AC
:100A4000E35C002B00D07CE7E3682000984778E760
:100A500023692000984774E72000074B98476A688D
:100A6000E023DB0213436B6080E763692000984753
:100A70007FE7C046400D0020C9070000D5070000F1
:100A80005D080000F0B5854CA544854B0293854870
:100A9000CE230371844B9847002800D0CAE08348D6
:100AA000834CA0478348A0478348844B984700283D
:100AB00000D0C5E07A4B029302AB03AA20217E4806
:100AC0007F4CA04703A97F487F4B98477F48784BCE
:100AD00098477448C8230371734B9847002800D087
:100AE000B2E07B48724CA0477A48A0477748A047BD
:100AF0007948A047704A1300203301214020774CE9
:100B0000A047002800D1A3E07548694B98476A4880
:100B10005130744B9847002800D0AAE0604B0293F4
:100B200002AB03AA092164485130654CA04703A9D0
:100B30006D48654B98476D485D4CA0476348A0479A
:100B40005848CE230371584B9847002800D094E0B2
:100B50005648574CA0475748A0475C4F3800A0471D
:100B60006348A047544E35005A352022772128008B
:100B7000604B984731005131092228005E4B98475D
:100B8000474B029302AB03AA202128004C4EB047EA
:100B900003A95A484C4B98473800A0475848A047EB
:100BA0002800584B9847002800D06AE05648404C2F
:100BB000A0474648A0475548A04704233E4A403234
:100BC00000210220524CA04700285ED15148384DE8
:100BD000A8473E48A847384C40224523E2543F3AB4
:100BE0000133E25220004B30210055310332424E96
:100BF000B04720004F30210053310222B047464811
:100C0000A847230020332200443200922200012111
:100C10000620424CA04700283BD12C4D2800244CF4
:100C2000A04764203E4B98473E48A0472800A04775
:100C3000C04602E03C481E4B98473C4B9D44F0BDEB
:100C40003B481B4B9847F8E73748194B9847F4E760
:100C5000134B029302AB03AA202117482030184CF3
:100C6000A04703A93348184B98471848104B98479A
:100C70004DE731480E4B9847DFE72B480C4B984720
:100C8000DBE72E480A4B9847D7E72D48084B984793
:100C9000D3E72C48064B9847CFE7C04614FAFFFF2E
:100CA000DC05000080030020BD1E0000747D0000F4
:100CB000F16A00007C7D000000000020D5200000CB
:100CC000552E0000B87D0000D56900008C8800001A
:100CD000EC7D0000F47D00000C7E00005128000037
:100CE000487E0000C5250000987E0000C47E0000FC
:100CF000D87E0000756800003F6800000C7F00008F
:100D0000307F000081220000747F0000907F00008F
:100D100045270000F87F000014800000292900000A
:100D200001380000908000004C7D0000EC050000C0
:100D3000947D0000547E00007C7E00005C7F0000FB
:100D4000E07F000074800000F0B5CC4CA544CC4B93
:100D50000293CC48CE230371CB4B9847002800D098
:100D60004AE1CA48CA4CA047CA48A047CA48CB4B28
:100D70009847002800D045E1C14B029302AB03AA7B
:100D80002021C548C64CA04703A9C648C64B984772
:100D9000C648BF4B9847BB48C8230371BA4B984716
:100DA000002800D032E1C248B94CA047C148A04752
:100DB000BE48A047C048A047C048A04704230193AD
:100DC000B54B7A3300930023022200210020BC4C53
:100DD000A047002800D01DE1AF4C7C23E15CB9485E
:100DE000B14B9847B148AA4B9847042301937E34EE
:100DF0000094033B022200210020B14CA0470028B0
:100E000000D0FCE004230193A34B82330093022320
:100E100002220021AA4CA047002800D0EFE00423C2
:100E200001939D4B86330093032302220021A44C9F
:100E3000A047002800D0E2E004230193964B8A33B8
:100E400000930423022200219D4CA047002800D0DB
:100E5000D5E08B4B0293904D28007E3002AB03AA65
:100E600010218F4CA0479848894CA0479748A0472D
:100E700003A997488C4B98478C48A0477C23EB5C90
:100E8000002B25D19348824CA0479348A047934814
:100E9000A047814C25005A35202277212800904B0D
:100EA000984721005131092228008E4B984728008D
:100EB0008D4B9847002800D0B0E08C48744CA04778
:100EC0007A48A047002200210720894B9847C04656
:100ED000714A1300203307214020864CA047002888
:100EE00000D19FE084486A4B98476B485130834B50
:100EF0009847002800D0A6E0614B029302AB03AAFA
:100F0000092165485130664CA04703A97C48664CCE
:100F1000A0477C48A04765485D4B98475948CE2379
:100F20000371594B9847002800D090E05748584C1F
:100F3000A0475848A0475D4F3800A047564E35009F
:100F40005A35202277212800654B984731005131CE
:100F500009222800634B9847494B029302AB03AA2E
:100F6000202128004E4EB04703A967484E4B9847B2
:100F70003800A0476548A04728005B4B98470028E9
:100F800069D15A48424CA0474848A0476048A0470A
:100F90000423414A40320F2102205E4CA047002822
:100FA0005DD15D483A4DA8474048A8473A4C402299
:100FB0004523E25407260133E65220004B3021003E
:100FC00055313C3A474FB84720004F30210053314C
:100FD0000222B8475148A847230020332200443258
:100FE00000922200310006204D4CA04700283AD044
:100FF0004C48274B984702E04B48254B98474B4BB2
:101000009D44F0BD4A48224B9847F8E74648204B9C
:101010009847F4E747481E4B9847F0E746481C4B73
:101020009847ECE7164B029302AB03AA20211A481B
:1010300020301B4CA04703A940481B4B98471B4836
:10104000134B984751E73E48114B9847D7E736482E
:101050000F4B9847D3E738480D4B9847CFE73948AF
:101060000B4B9847CBE71148094CA0476420364BFF
:1010700098473648A047C046C1E7C04614FAFFFF6C
:10108000DC05000080030020BD1E0000747D000010
:10109000F16A00007C7D000090000020D520000057
:1010A000552E0000B87D0000D56900008C88000036
:1010B000EC7D0000F47D0000A8800000CC800000E2
:1010C000C12400002C81000054810000A081000098
:1010D00008830000F4810000288200007082000074
:1010E000756800003F68000081220000A0820000B7
:1010F000752C000051280000487E0000C525000026
:101100001083000040830000508300008C830000A7
:10111000F483000045270000F87F000014800000E1
:1011200029290000748000004C7D0000EC050000BF
:10113000947D00000C8100005C7F0000B8820000FC
:101140007C7E0000E07F00000138000090800000FD
:10115000F0B5D6464F464646C0B582B081468A466F
:10116000002400250D4B984620270D4EC0474B46C6
:101170005B19A1B2009700220220B047002805D1D8
:1011800020350134E4B25545F0DB00E0C04602B042
:101190001CBC90469946A246F0BDC046491F0000BF
:1011A000F12A000030B5454CA5440023444A6A4466
:1011B0001370444A019200934348CE330371434B6A
:1011C0009847434C20606846424B9847206000286F
:1011D00018D13B49694400203F4B9847031E3C4AC5
:1011E00010600BD1364B6B441B78002B27D13B484A
:1011F0003B4B9847031E364A10600BD01800394B02
:101200009D4430BD3048C8230371304B9847304B64
:101210001860DEE72B4B019301AB02AA58212F483F
:10122000314CA04702A93148314B984731486844B6
:10123000314B9847031E264A106003D0DEE72F4843
:101240002F4B98472F4B98471D4969440120224B4B
:101250009847031E1E4A1060D0D1194B6B441B786F
:10126000002B23D1802189002748284B9847031E53
:10127000174A1060C2D126481D4CA0472548204B74
:101280009847104B019301AB02AA802189001E48A8
:10129000154DA84702A91548A047164868441E4B9B
:1012A0009847031E0A4A106003D0A7E71B48104B5B
:1012B0009847144B9847064B1B689FE74CF9FFFF74
:1012C000AF060000A406000080030020BD1E000041
:1012D000940400209D1F00000D2600008C85000056
:1012E0004D2C0000B4060000552E0000E4870000DD
:1012F000D5690000AE060000152700001088000028
:10130000F16A0000791F0000E4850000511100001F
:1013100030880000708800002D27000090880000B1
:10132000F0B5D6464F464646C0B582B081468A469D
:10133000002400250D4B984620270D4EC0474B46F4
:101340005B19A1B2009700220220B047002805D106
:1013500020350134E4B25545F0DB00E0C04602B070
:101360001CBC90469946A246F0BDC046491F0000ED
:10137000F12A0000F0B5214CA54405000F0016002D
:101380001F4B30931F48204CA0472048A047204CBB
:101390002223E7542022310020001E4B98472000D2
:1013A00040301D4B9847041E23D1154B3093184EE7
:1013B0003000403030AB31AA0921184FB84731A96D
:1013C0001748184B98473000493017227721164BA1
:1013D00098476846154B9847602231006846144B81
:1013E000984729006846134B98472000124B9D44AC
:1013F000F0BD1248044B9847F7E7C0465CF9FFFF81
:10140000DC05000040850000F16A000058850000FE
:10141000200300203F680000C5250000552E000075
:1014200020830000D569000075680000692E000067
:10143000792E0000892E0000A40600007C7E0000AA
:10144000F0B5644CA5440022634B6B441A70634BA7
:10145000219309A8624B0200190031C931C231C978
:1014600031C211C911C201A920330A0013CB13C222
:1014700013CB13C203CB03C25A48C82303715A4B80
:1014800098475A4C206009AA012119A8584B98473F
:101490002060002802D0574B9D44F0BD564C19AA3D
:1014A0002300203323CA23C323CA23C303CA03C38D
:1014B00001AA072111A84E4B98474C4D286011AA4C
:1014C000E0340BCA0BC40BCA0BC40ACA0AC4434F8C
:1014D000219721AB22AA202119A8484EB04722A962
:1014E0004748484CA047219721AB22AA202111A8A8
:1014F000B04722A94448A047C04637496944002064
:10150000424B984728600028C5D1334B6B441B7869
:10151000002B1AD13E483F4B9847344A10600028B0
:10152000B9D1219721AB22AA58213948334CA04781
:1015300022A93948334B984738486844384B984774
:101540002A4A1060002803D0A5E73648364B984752
:10155000364B98472348C8230371234B98471E49AD
:1015600069440120294B9847204A1060002800D088
:1015700091E7194B6B441B78002B24D18021890003
:101580001D482B4B9847194B1860002800D082E764
:1015900028481C4CA0472848234B98470F4B2193C1
:1015A00021AB22AA802189001348144DA84722A903
:1015B0001948A04719486844204B98470B4A1060C7
:1015C000002803D067E71E480E4B9847074B186862
:1015D00061E7C046CCF8FFFF2F070000A40600001B
:1015E0005484000080030020BD1E000098040020E9
:1015F000751300003407000020010020552E000064
:10160000EC840000D5690000188500000D2600005C
:10161000948400004D2C0000E48700002E07000099
:101620001527000010880000F16A0000791F0000F3
:101630002113000030880000708800002D27000072
:101640009088000070B582B005000E0000226B4645
:10165000DA80064C6B46991D2800A0470028F9D176
:101660006B4606331B88337002B070BD0142000028
:1016700070B505008CB2034E21002800B047002849
:10168000FAD170BDD541000010B582B06B46DC1DAB
:10169000012221000B480C4B984772B6BFF35F8FB5
:1016A0000A4A002313700A490B7824780948C45465
:1016B00001330B7001231370BFF35F8F62B602B06A
:1016C00010BDC0469C040020794200001004002098
:1016D000D1080020D0040020F0B591B08023DB05B4
:1016E000009300230193FF2269460A8100228B7236
:1016F000CB72012424216846445401314454013101
:101700004354013143540A93053143540131435446
:1017100005930382C376027602774276132383769B
:10172000427780235B0303932F4B0C932F4B0D9336
:1017300001235B420E930F93E1235B0208932C4D30
:101740002C4B1D602C4A2D4B1A602D4A2D4B1A60D4
:101750006A462D4928002D4B98472D4F3B689868C5
:1017600000212C4EB0473B6858680021B0472E68D6
:101770003000294B98471F2318408440274B1C609A
:101780002A68D369002BFCD13368022213433360EB
:10179000174B1B68DA69002AFCD159688022520273
:1017A0000A435A600121124AD171DA69002AFCD138
:1017B000DA69002AFCD15968802292020A435A60F1
:1017C00001210B4A9171DA69002AFCD114490320E6
:1017D000144B984704220C4B9A75802252010F4BF0
:1017E0001A6011B0F0BDC0460200160002001700DA
:1017F0009C040020740D002071160000700D002064
:10180000451600006C0D002000140042953E0000BB
:1018100014040020296B0000053E000000E100E0F8
:1018200089160000C93D000030B50200124B18783F
:10183000124B1B7898421AD3C01A114C20701048D2
:101840000078002812D0041C884200D90C1CE0B299
:1018500000280BD01C18E4B20A4DE95C117001326B
:101860000133DBB29C42F8D1044A137030BDC01A78
:10187000034C2070E3E7C046D1080020D0080020C8
:10188000D2080020D004002010B50848084CA0471A
:101890000848A0470848A0470848A0470848A0476C
:1018A0000848A0470848A047002010BDA8880000AD
:1018B000F16A0000D0880000D88800001C89000070
:1018C00060890000BC8900008C88000010B504000D
:1018D0002149224B984700281FD0214920001F4B47
:1018E0009847002820D01F4920001C4B984700280B
:1018F00020D01D492000194B9847002820D01B49B3
:101900002000164B9847002820D02378002B09D0C0
:1019100021001748174B984704E01748174B984782
:10192000174B9847002010BD1348144B9847154B90
:101930009847F7E71048114B9847134B9847F1E742
:101940000D480E4B9847114B9847EBE70A480B4B55
:1019500098470F4B9847E5E7388A0000716D000003
:10196000408A0000508A0000648A0000788A0000E3
:10197000988A0000D56900008C880000F16A000098
:1019800089180000A511000041140000850A00001C
:10199000490D000070B5144A53781278DBB29342B7
:1019A00020D0124C0022104980256D00013292B2E5
:1019B0000B78DBB2581CC0B20870CB189B78237030
:1019C0004B780878DBB2834202D00134AA42EDD1D1
:1019D000064800238354064B98470648064B984711
:1019E000002070BD0022F3E7E00A0020D4080020A8
:1019F000CD180000B88A0000D569000010B50400B9
:101A00000068002801D0024B98470023236010BDD6
:101A10000D680000002907D0E223022902D8044BF8
:101A20004360002318007047024B43600023F9E72E
:101A3000DC030020B003002070B505000820084B2F
:101A40009847040005702900064B9847002801D1EB
:101A5000200070BD2000044B98470024F8E7C046E2
:101A6000F9670000151A00000D680000436849007E
:101A7000585A7047F0B5D6464F464646C0B59446CC
:101A8000002821D08946884680440023134816E068
:101A90006D00EDB2013E002E0CD0DF0B5B009BB25F
:101AA0002C000C40621E9441E4B2BC42F0D0434092
:101AB0009BB2EDE701229246D144C14505D04A468A
:101AC000117808260125E8E70023624613701B0AF7
:101AD00053701CBC90469946A246F0BD0580FFFF9E
:101AE00010B5411C40780238C0B20A18014B984723
:101AF00010BDC046751A000010B528238B702C331A
:101B00004B7004223633CA520800024B984700201B
:101B100010BDC046E11A000010B51C238B70012ACD
:101B200009D007234B7004228A23CA520800034BB2
:101B30009847002010BD0B334B70F4E7E11A00000A
:101B400010B515238B70CB78032B0BD0002A0CD14A
:101B500007234B7004228A23CA520800044B98477B
:101B6000002010BD24334B70F4E70B234B70F1E7DA
:101B7000E11A000010B530238B70293B4B708A228C
:101B80008B520800014B9847002010BDE11A00005D
:101B900010B517238B70103B4B7004228333CA524D
:101BA0000800024B9847002010BDC046E11A000013
:101BB00010B508238B70CB78DB0709D507234B7052
:101BC00023228A23CA520800034B9847002010BDE5
:101BD00027234B70F4E7C046E11A000010B5CA781D
:101BE0000323134016228A70012B03D9E220032B12
:101BF0000AD010BD1B234B700D326F33CA52080040
:101C0000044B98470020F4E724334B7004226333DD
:101C1000CA52F4E7E11A000010B51B238B70143B85
:101C20004B7023228333CA520800024B984700208E
:101C300010BDC046E11A000010B502238B700533B9
:101C40004B70CB787F2B07D807228A23CA52080013
:101C5000034B9847002010BD23228A23CA52F6E77F
:101C6000E11A000010B520238B70193B4B70042241
:101C70008333CA520800024B9847002010BDC0466B
:101C8000E11A000010B512238B700B3B4B70CB7820
:101C90007F2B0ED80B234B70002A02D04B782033B9
:101CA0004B7004228A23CA520800034B9847002035
:101CB00010BD27234B70EFE7E11A000010B582B08A
:101CC0000400144B1B680193042201A9124B98478E
:101CD0000023002802D02278042A02D0180002B083
:101CE00010BD62780F2A12D0D3B20F2B07D8D123A0
:101CF000012AF3D02133032AF0D0E123EEE7F323C6
:101D0000112AEBD0D2B21F3BFF2AE7D0F5E7F4232C
:101D1000E4E7C046BC8A00002168000070B5051EDB
:101D200017D008200C4B9847040068780B4B984755
:101D3000206028000A4B984760602368002B03D07E
:101D4000002801D0200070BD2000064B98470024D9
:101D5000F8E70024F6E7C046F9670000391A0000EA
:101D6000751E00000D6800000068704740687047ED
:101D700070B505000468002C08D02000054B98477A
:101D8000201D054B98472868044B984700232B607B
:101D900070BDC046FD190000ED1D00000D6800007B
:101DA00010B50369984710BD10B54369984710BD39
:101DB00010B58369984710BD10B504000120034B8E
:101DC0009847E3692000984710BDC0468937000056
:101DD00010B504000120034B9847236A2000984760
:101DE00010BDC046893700004068704710B5040038
:101DF0000368002B06D0596A1878044B984720686E
:101E0000034B98470023236010BDC0460D320000ED
:101E10000D68000070B504000D004068094B98473C
:101E20002B68A3606B68E360AB682361EB68636158
:101E30002B69A361AB6923626B69E3612B6A6362FF
:101E4000002070BDB931000010B58AB0040001A9AE
:101E5000074B9847616801A8A3689847002801D0FC
:101E60000AB010BD099B6362E36820009847F7E75A
:101E7000151E000070B505002820084B9847040087
:101E80002B7803704560064B9847002801D120004D
:101E900070BD2000034B98470024F8E7F967000065
:101EA000491E00000D68000010B50248024B98471B
:101EB000002010BDD8090020711D000010B50400DD
:101EC000114B1B68002B01D0104B98472000104B82
:101ED00098470D4B1860E12300280FD00D4B984711
:101EE0000D4C2060084B18680C4B98470C4B186041
:101EF0002368002B04D0002804D00023180010BD54
:101F0000E123FBE7E123F9E7D8090020A91E00003F
:101F10001D1D0000691D0000D40900206D1D00007A
:101F2000DC09002010B5054B1B68E120002B03D015
:101F3000034B1868034B984710BDC046D8090020D2
:101F4000DC090020B11D000010B5054B1B68E12025
:101F5000002B03D0034B1868034B984710BDC046B5
:101F6000D8090020DC090020B91D000010B5014B84
:101F7000984710BD491F000010B5054B1B68E120B4
:101F8000002B03D0034B1868034B984710BDC04685
:101F9000D8090020DC090020D11D000070B5A4B0D4
:101FA0000500394B1B68002B00D16AE001AB002211
:101FB000DA709A80002811D0344B186801A9344B8C
:101FC0009847041E10D001003248334B9847F02C3C
:101FD00001D0324B9847200024B070BDE221304838
:101FE0002D4B9847E224F4E7284B186808212D4B25
:101FF000984706002C4B9847041E04D001002B483C
:10200000254B9847E3E701A94A78294B1868294BE3
:102010009847041E04D0010027481F4B9847D6E775
:102020003000264B9847224B18688E226A440A21BA
:102030006944234B9847041E0CD18A2301AAD45A21
:10204000032C0CD863425C41E63421001D48124B3E
:102050009847BCE701001C480F4B9847B7E70A2098
:1020600068441A4B9847041E04D0010009480A4BE3
:102070009847ACE704220B2169442800144B984789
:10208000A7E7E124A7E7C046D8090020D40900202B
:10209000751B0000EC8A0000D56900006D1F000070
:1020A000C08A00006D1A0000251F0000248B00006C
:1020B000DC090020A11D00004C8B000089370000C6
:1020C000A91D0000B08B00007C8B0000BD1C00002F
:1020D0003F68000070B5A4B005002C4B1B68E124DC
:1020E000002B0BD001A90023CB708B80284B1868E4
:1020F000284B9847041E04D0274B9847200024B053
:1021000070BD234B18680E21244B98470600244BC2
:102110009847041EF0D101A94A78224B1868224B37
:102120009847041EE8D13000204B98471D4B186893
:102130008E226A440A2169441D4B9847041EDBD154
:102140008A2301AAD45A032C04D860426041E630A5
:102150000400D1E70A206844164B9847041ECBD1EF
:1021600001AA93798A21525A9A420CD3232B01D087
:10217000E624C1E7002DBFD020227F396944280022
:102180000D4B9847B8E7E624B6E7C046D8090020CB
:10219000D4090020191C00006D1F00006D1A0000FA
:1021A000251F0000DC090020A11D00008937000068
:1021B000A91D0000BD1C00003F68000030B5A5B09F
:1021C000E224002811D001AC0323E3700023A38094
:1021D000202201000A2068441E4B98471E4B1868B5
:1021E00021001E4B9847041E04D01D4B9847200029
:1021F00025B030BD184B18680B211A4B98470500C5
:10220000194B9847041EF0D101A94A78174B18685A
:10221000174B9847041EE8D12800164B9847134BDC
:1022200018688E226A440A216944134B9847041E99
:10223000DBD18A2301AAD45A032C04D8604260411E
:10224000E6300400D1E70A2068440C4B98470400AC
:10225000CBE7C0463F680000D4090020DD1B00002A
:102260006D1F00006D1A0000251F0000DC09002012
:10227000A11D000089370000A91D0000BD1C000041
:1022800010B5014B984710BDBD21000010B5029C50
:10229000002C08D00324204007D002280DD00128AC
:1022A00003D0E22012E0E22010E0D2000720034039
:1022B0001A43029B1A80002008E0C900072003404F
:1022C0000B4312021A43029B1A80002010BD00002B
:1022D00070B505000E001400E220002A11D01F4B3B
:1022E00018681F4B98474378002B13D1012D09D054
:1022F000002D03D0022D09D0E22002E058232360F4
:10230000002070BD402323600020FAE720232360D3
:102310000020F6E7012D09D0002D03D0022D09D0B1
:10232000E220EEE7802323600020EAE740232360D9
:102330000020E6E7072E08D9082E0AD0E2200F2E4B
:10234000DFD8482323600020DBE72423236000201C
:10235000D7E7D0235B0023600020D2E7DC09002010
:10236000E91D000030B5A5B014001D00002A59D0A9
:1023700001ABD870998040B2002812DB0422210002
:102380000A2068442A4B98472A4B1868002201A962
:10239000294B9847041E16D0284B9847200025B09B
:1023A00030BD202221000A206844214B9847002D8F
:1023B0003AD0202229002A2068441D4B98471D4B03
:1023C00018680122E3E71B4B186814211C4B98473F
:1023D00005001C4B9847041EDED101A94A781A4B10
:1023E00018681A4B9847041ED6D12800184B9847F6
:1023F000154B18688E226A440A216944154B984788
:10240000041EC9D18A2301AAD45A032C04D86042DD
:102410006041E6300400BFE70A2068440E4B98474D
:102420000400B9E7E224B9E7024B18680022AEE7DE
:102430003F680000D4090020851C00006D1F0000CB
:102440006D1A0000251F0000DC090020A11D0000FE
:1024500089370000A91D0000BD1C000070B584B0C4
:10246000040008A840C80578002E06D0042D11D01D
:10247000E220202D03D004B070BDE220FBE70E2047
:102480006844009020000C4DA8470028F3D1802319
:102490001C4307E00E20684400902000064DA8472A
:1024A0000028E8D10E236B44198800233200200055
:1024B000024CA047DFE7C0468D22000065230000E4
:1024C000F0B5A7B006002CA880C80578002F17D05B
:1024D000042D22D0E224202D14D0200027B0F0BDFE
:1024E00080231E4321E0122068442A4B9847041E93
:1024F00010D12A00132169443800274B984709E07E
:10250000E224EAE70A20684400903000234CA04708
:10251000041EE5D0224B9847DFE70A20684400906C
:1025200030001E4CA047041EF4D103A9CE700A232C
:102530006B441B888B801B4B18681B4B9847041EF1
:10254000E8D1184B18680F21184B98470600184B14
:102550009847041EDED103A94A78164B1868164B1B
:102560009847041ED6D13000144B9847114B186879
:1025700096226A4412216944114B9847041EC9D11E
:102580008A2303AAD45A032CADD863425C41E634B3
:10259000C0E7C046BD1C00003F6800008D2200005F
:1025A0006D1F0000D4090020391C00006D1A0000C6
:1025B000251F0000DC090020A11D00008937000054
:1025C000A91D000070B58AB00400E220002C0BD0D9
:1025D0002023019302AB009300230022002100205E
:1025E000084DA847051E01D00AB070BD042202A9FB
:1025F0002000054EB047201D052204A9B047280041
:10260000F2E7C046C12400003F68000070B584B006
:1026100004000D000423019303AB00930523022261
:1026200000210020084EB047002808D163425C41D9
:10263000023403AB1B5D002B03D000232B7004B0CE
:1026400070BD01332B70FAE7C1240000F0B5A5B0CE
:1026500007000E00150001AC8C2200212000224B47
:102660009847E770A680214B18682100204B9847B7
:10267000041E04D01F4B9847200025B0F0BD1B4B13
:10268000186809211C4B984706001C4B9847041EEC
:10269000F0D101A94A781A4B18681A4B9847041EC2
:1026A000E8D13000184B9847154B18688E226A44C1
:1026B0000A216944154B9847041EDBD18A2301AADD
:1026C000D45A032C04D860426041E6300400D1E7BC
:1026D000002D02D001ABDB792B700A2068440C4B33
:1026E00098470400C6E7C04675680000D40900207A
:1026F000911B00006D1F00006D1A0000251F0000D7
:10270000DC090020A11D000089370000A91D000080
:10271000BD1C000010B50200E220002A03D00021F9
:102720006238014B984710BD4D26000010B50200DD
:10273000E220002A03D000216138014B984710BDE8
:102740004D26000030B5A5B01400354A1268002AA5
:102750004ED0002B50D0002C4CD001AAD0709180CC
:1027600003284ED11F2B11D92022210007306844A5
:102770002C4B9847002247E0032B45D90432210017
:1027800008306844274B984701223DE000223BE097
:10279000002239E0244B18680521244B9847050096
:1027A000234B9847002836D101A94A78214B186855
:1027B000214B9847041E2ED12800204B98471D4BD3
:1027C00018688E226A440A2169441D4B9847041EEA
:1027D00021D18A2301AAD45A032C03D863425C4135
:1027E000E63418E00A206844164B9847040012E0CB
:1027F000E12412E0E22410E001AAD07091800328C5
:10280000C6D000220228B7D0074B186801A90E4B8A
:102810009847041EBED00D4B9847200025B030BD10
:10282000D80900203F680000D40900206D1A00007C
:10283000251F0000DC090020A11D000089370000D1
:10284000A91D0000BD1C0000411B00006D1F000001
:1028500070B5A4B015001E1E4ED001ABD870998083
:10286000C30708D4E224002A0ED0202229000A201F
:102870006844224B9847224B186801A9214B98477E
:10288000041E04D0204B9847200024B070BD1C4B80
:1028900018680A211D4B984705001D4B98470028D2
:1028A000F0D101A94A781B4B18681B4B9847041EAE
:1028B000E8D12800194B9847164B18688E226A44B5
:1028C0000A216944164B9847041EDBD18A2301AACA
:1028D000D45A032C03D863425C41E634D2E70A2081
:1028E0006844104B9847041ECCD120220B21694428
:1028F0003000024B9847C5E7E224C3E73F68000079
:10290000D4090020B11B00006D1F00006D1A0000EB
:10291000251F0000DC090020A11D000089370000F0
:10292000A91D0000BD1C000030B5A5B014001D1E7F
:1029300061D0289B002B60D0C30705D4002A5ED04D
:1029400001ABD870998004E001ABD8709980002A5F
:102950001CD0202221000A2068442A4B98472022BC
:1029600029002A206844274CA0470D2228994A2094
:102970006844A047244B186801A9244B9847041EBB
:102980000BD0234B9847200025B030BD20220021DA
:102990000A2068441F4B9847E1E71B4B1868012148
:1029A0001D4B984705001D4B98470028E9D101A908
:1029B0004A781B4B18681B4B9847041EE1D128002E
:1029C000194B9847164B18688E226A440A216944AD
:1029D000164B9847041ED4D18A2301AAD45A032C3B
:1029E00003D863425C41E634CBE70A206844104BCD
:1029F00098470400C5E7E224C5E7E224C3E7E224E0
:102A0000C1E7C0463F680000D4090020F91A000061
:102A10006D1F0000756800006D1A0000251F000082
:102A2000DC090020A11D000089370000A91D00005D
:102A3000BD1C000070B5A4B006000D0001AC8C22D6
:102A4000002120001F4B9847E670A5801E4B186898
:102A500021001E4B9847041E04D01D4B98472000B0
:102A600024B070BD184B186812211A4B9847050006
:102A7000194B98470028F0D101A94A78174B1868DC
:102A8000174B9847041EE8D12800164B9847134B64
:102A900018688E226A440A216944134B9847041E21
:102AA000DBD18A2301AAD45A032C04D860426041A6
:102AB000E6300400D1E70A2068440C4B9847040034
:102AC000CBE7C04675680000D4090020651C0000F3
:102AD0006D1F00006D1A0000251F0000DC0900209A
:102AE000A11D000089370000A91D0000BD1C0000C9
:102AF000F0B5DE4657464E46C0B588B00700039194
:102B000015001E0000230793E224022806D92000A6
:102B100008B01CBC91469A46A346F0BD022817D0C7
:102B20000024109B002BF2D0002E70D02B43E234F7
:102B30009B07ECD107AA03993800414B9847041E24
:102B4000E5D1109B5B19079A934204D9E224DEE792
:102B50000F29DCD8E4E76B099A46ED066D0F0023D8
:102B60009946384B9B4605904C46B9462F00554632
:102B7000049617E04B46002B01D1022D2DD0FBB25D
:102B8000EAB2042101910499091900910399484678
:102B9000D847002834D104340137082F32D0109B95
:102BA0009C4232D2002FE5D1109B1B1B1F2BE1D979
:102BB0004B46002B01D1022D31D0EAB220230193E4
:102BC000049B1B1900930023039948461D4EB047F0
:102BD00000281ED120340135E1E7052FCFD1049E16
:102BE000315D0020184B9847002814D133195978CB
:102BF0000120154B984700280FD104340627CEE753
:102C0000040084E701350027C9E7059C7FE7E2243B
:102C10007DE704007BE7040079E7040077E7FBB277
:102C2000EAB20421019104990919009103994846D7
:102C3000044EB0470028E3D104340137AFE7C04663
:102C4000D12200005D240000352A000010B582B0BA
:102C5000E222002809D0030010339A3A0092383A51
:102C600000210020024CA0470200100002B010BD5D
:102C7000F12A000030B5A5B00D0011002E4B1B68E5
:102C8000E124002B14D001AC0423E370A0802022A7
:102C90000A206844294B9847294B18682A002100CC
:102CA000284B9847041E06D0F02C01D0264B98479D
:102CB000200025B030BD224B18680321234B9847D4
:102CC0000500234B9847041E04D001002148224BE5
:102CD0009847E9E701A94A78204B1868204B9847A4
:102CE000041E04D001001F481B4B9847DCE7280056
:102CF0001D4B9847194B18688E226A440A21694473
:102D00001A4B9847041E0CD18A2301AAD45A032CCB
:102D10000CD863425C41E634210015480E4B9847BD
:102D2000C2E7010013480C4B9847BDE70A206844EE
:102D3000114B98470400B7E7D80900203F6800000E
:102D4000D4090020191B00006D1F00006D1A00003F
:102D5000251F0000248B0000D5690000DC0900203D
:102D6000A11D00004C8B000089370000A91D000048
:102D7000B08B00007C8B0000BD1C0000F8B5DE4667
:102D800057464E464546E0B581468A4617001E0026
:102D90000AAB1B789B46002849D0002A49D0E22084
:102DA000002E3CD0326800213800234B9847534610
:102DB000002B2FDD3368002B2CDB00250024B046D0
:102DC00017E0781903221D491D4B9847023502E090
:102DD0005B46002B15D04B469A5D781919491A4B62
:102DE000984703350134A24513D043461B689D42E2
:102DF0001BDC26002307EBD1002CE9D05B46002B1F
:102E0000DFD14B469A5D781910490F4B9847023530
:102E1000E8E7464638000E4B9847306000203CBC3F
:102E200090469946A246AB46F8BD4646F2E7E220F8
:102E3000F5E7E220F3E7C04675680000AC8B0000C0
:102E40003F680000F48B0000956C0000FC8B0000D4
:102E5000856D000010B582B001240094014CA0479C
:102E600002B010BD7D2D000010B5024B9847002028
:102E700010BDC0464530000010B5024B98470020F9
:102E800010BDC046A930000010B5024B9847002085
:102E900010BDC04635310000F0B5DE4657464E46FF
:102EA0004546E0B5D5B00B90002A00D1C0E00B003C
:102EB000920189180A910200A8320992604A91464B
:102EC0005CE0029D019502905846BC462700140024
:102ED00002000B25EA4105000626F5415540020097
:102EE0001336F24155404A468A58049E8E59B046E0
:102EF0004244AD18029A02409046019A82434646E7
:102F00007240AA18D318039DAB469B4425000D269A
:102F1000F54122000B3EF2416A4025005646F5413C
:102F20006A4065467D40254066463E4075405219E0
:102F3000D2180431019B6546039580256D00A94296
:102F4000BFD13D006746089B9C4659460C920D94A4
:102F50000E9510911190029B1293019B13930F9762
:102F600063460599079804C91C68A446624404C3D3
:102F70008342F8D1069B0A9A9A4259D014A840225B
:102F800094469C4462466446069202001978D170C9
:102F90005978917099785170D9781170043304324E
:102FA000A342F3D14268816B13000724E34114006C
:102FB0001225EC416340D20853400268446AA4469B
:102FC00062449B180A001124E2410C000135EC41D7
:102FD0006240890A4A409B180364043044AB98421B
:102FE000E0D10B9B8822904643449C460CAB059352
:102FF0006246099802CA02C38242FBD10792139A21
:10300000129B0193119B029310980F9B98460E9F61
:103010000D9B0C9C002514A9049116218A4661463B
:103020000891BC461F0013002900424603924FE757
:1030300055B03CBC90469946A246AB46F0BDC04652
:10304000048C000010B50400A82200210D4B984705
:103050000D4A8823E2500D4A0433E2500C4A0433EF
:10306000E2500C4A0433E2500B4A0433E2500B4A5C
:103070000433E2500A4A0433E2500A4A0433E2506D
:1030800010BDC0467568000067E6096A85AE67BB7B
:1030900072F36E3C3AF54FA57F520E518C68059B3A
:1030A000ABD9831F19CDE05BF0B5D6464F4680B54E
:1030B00083B006000D001400406840273F1A974275
:1030C00000D91700083030183A002900174B9847EC
:1030D0007368E3183F2B05D8736003B00CBC9146AE
:1030E0009A46F0BD08239C46B444634601220193EE
:1030F000614630000E4B9A469847E41BA209914660
:10310000E9193000D0474A46531C9B013268944667
:10311000634433603F231A002240726021009943C8
:10312000C91969180198014B9847D6E73F68000014
:10313000992E0000F8B505000C0040682B68C718F0
:103140002F60FF0009235B421B1A3F261E40431CD1
:103150006B602B1880221A72321D0930281800214A
:10316000134B98476B689C466644AB193A0E1A732A
:103170003A0C5A733A0A9A73320008326A60DF7363
:1031800092092900083128000A4B98472800883006
:10319000A83503E004300434A84208D003230278A1
:1031A000E2540268120A0260013BF8D2F2E7F8BD6D
:1031B00075680000992E00000378F020002B00D0E5
:1031C00070470A4B0B600A4B4B600A4BCB600A4BB3
:1031D0008B600A4B8B610A4B0B610A4B4B610A4BAC
:1031E000CB6100230B620020EAE7C04631320000C9
:1031F000B133000005340000B5330000D9360000BB
:1032000091350000893600002937000010B50028EC
:1032100001D0E12010BD0800014B9847FAE7C046F5
:103220002937000001680722CB691A42FCD1704798
:10323000F0B5C64600B505000E004C794B4B1B6837
:10324000002B07D14A4A0021116051609160D16082
:10325000116151610133454A1360F020052C02D9F8
:1032600004BC9046F0BDA300414A9B58002B08D0F7
:103270009A6A01329A62A4003D4BE3582B62002007
:10328000EEE7C0383B4B98478046A300384A985039
:1032900001238362384F394B7B600023BB603B7353
:1032A0003B76802292033A6101225242FA82BA822C
:1032B000FB613B622532BB54BB620832BB54013216
:1032C000BB540132BB54D7333B86B068FA21890026
:1032D0002B4B98473860052C08D8A300294AD358AF
:1032E0009F46254A28494046284B9847A300204A34
:1032F0009E58F46237683000254B98473B6802229D
:1033000013433B603068234B98471F2318401E3BF4
:103310008340214A1360002310217A8B0A42AAD1EC
:103320000133F2889342F8D310237B83A3E7124A38
:103330001A494046154B9847D8E70F4A1849404666
:10334000124B9847D2E70C4A164940460F4B984714
:10335000CCE7094A144940460C4B9847C6E7064A51
:1033600012494046094B9847C0E7C046140A00205E
:10337000E40C0020F9670000E0090020480D00007F
:103380007D4D0000048D0000000800422101000076
:1033900025320000053E000000E100E0000C004284
:1033A000001000420014004200180042001C0042BD
:1033B0000020704730B585B00D0014000E4B9847C3
:1033C000437901A9027952080A804D6000220A72ED
:1033D0004A728A7203322A7001344C809B00074A79
:1033E0009858074B98470300F0205A1E93415B42C0
:1033F000184005B030BDC046E91D0000E40C0020B7
:10340000A5070000F0B585B00C001600144B9847D6
:103410004579816A01AB027952081A8032885A8054
:10342000029400221A725A729A724C1E002914DDFC
:103430000C4F0D4EAB00D85901A9B047013C03D346
:103440000028F7D1002205E0F0220300581E834136
:103450005B421A40100005B0F0BDF022FAE7C0460A
:10346000E91D0000E40C00208107000070B50E008B
:10347000374B98474479374D374BEB82FA21890017
:103480003000364B98472860A200354BD5582E683F
:103490002800344B984733680222934333602868EE
:1034A000314B98471F2318401E3B834080222F49F1
:1034B0008B50052C09D8A3002D4AD3589F46284B82
:1034C0001868244A2B492C4B9847A400244BE558F4
:1034D0002C682800234B984723680222134323605B
:1034E0002868214B98471F2318401E3B83401F4AE2
:1034F000136000231021628B0A4205D10133EA8850
:103500009342F8D31023638370BD154B5868114A5A
:103510001A49194B9847D8E7114B98680D4A184932
:10352000154B9847D1E70E4BD8680A4A1549124BFC
:103530009847CAE70A4B1869064A13490E4B984741
:10354000C3E7074B5869034A10490B4B9847BCE740
:10355000E91D0000E0090020102700007D4D00005B
:10356000E40C002025320000053E000000E100E0F0
:103570001C8D00000008004221010000000C0042E8
:10358000001000420014004200180042001C0042DB
:10359000F0B5D6464F464646C0B588B00400019007
:1035A000304B984781464779866A836898462E4B08
:1035B0001B6806932D4B984503D0190020002C4B17
:1035C000984703AC002200232280628007AD049557
:1035D00023726372A372BB00264A98582100264BBF
:1035E00098474B46988C254B98474B461B795B0870
:1035F0002380042363806560751E002E2CDD1D4B27
:103600009A461F4EBB005246985803A9B047040083
:10361000013D0DD30028F5D1144B98450BD1042260
:1036200006A907A8174B9847002813D0F02009E0F7
:103630000E4B984503D0414601980D4B9847F0201A
:10364000002CECD008B01CBC90469946A246F0BDB8
:103650000124F0E70020F5E7044B9845F8D1F0206D
:10366000F0E7C046E91D0000348D0000A08601008F
:103670006D340000E40C0020A50700007D37000039
:10368000810700002168000000B585B00F4B984706
:1036900043790279520869460A8001224A8003A9C7
:1036A00001910022684602724272827202320A70EE
:1036B0009B00074A98586946064B98470300F0203C
:1036C0005A1E93415B42184005B000BDE91D000041
:1036D000E40C0020A507000000B585B00F4B98470B
:1036E00043790279520869460A8001224A8003A977
:1036F00001910022684602724272827201220A70AF
:103700009B00074A98586946064B98470300F020EB
:103710005A1E93415B42184005B000BDE91D0000F0
:10372000E40C0020A507000070B504000F4A1368E0
:10373000013B1360002804D0836A013B8362002BA5
:1037400001DD002070BDC36A9B00094A9B58002B15
:10375000F7D0084B9847064DE36A9B005859064B33
:103760009847E36A9B0000225A51EAE7140A0020B6
:10377000E40C0020090400000D68000010B5014BA6
:10378000984710BDD537000010B5014B984710BDC4
:103790000138000070B50020084B98470500084C20
:1037A000FA218900A047074B186007492800A04765
:1037B000064B18600522064B1A6070BDE5470000F5
:1037C0007D4D00000804002040420F000C04002042
:1037D00010E000E030B5084B1C68084A0025802145
:1037E0004902013807D3002CFBD054609560136860
:1037F0000B42FCD0F5E730BD0C04002010E000E0E7
:1038000030B5084B1C68084A002580214902013860
:1038100007D3002CFBD05460956013680B42FCD09A
:10382000F5E730BD0804002010E000E00C4B1B68F9
:10383000002B06D1EFF31083002B07D00022094B99
:103840001A70074A136801331360704772B6BFF3EA
:103850005F8F0022044B1A700132024B1A70F0E79E
:10386000180A00201C0A002010040020084B1A68C7
:10387000013A1A601B68002B09D1064B1B78002BFC
:1038800005D00122044B1A70BFF35F8F62B67047F8
:10389000180A00201C0A002010040020F0B583B094
:1038A00001AC012565700027A770257021003E201E
:1038B000064EB0478022D205054B9A61277065708D
:1038C00021000F20B04703B0F0BDC046AD39000065
:1038D0008044004170B50022104B1A70002310493B
:1038E0001F25104E0D4C0AE00D4908E023780133E6
:1038F000DBB223700F2B10D800211F2BF4D9280026
:1039000018400122824008691042EFD00A619B00F2
:103910009B59002BEAD09847E8E770BDFC0C0020CB
:1039200000180040000D0020044A137802210B43C8
:10393000137053785BB2002BFBDB7047001800401C
:1039400000B583B0124A936940210B43936101A9EA
:1039500000230B7005200F4B984705200E4B98470E
:103960000E4A137801210B43137053785BB2002B7E
:10397000FBDB0B4B19004031002204C39942FCD100
:103980001022084B1A60084B984703B000BDC04690
:1039900000040040FD48000071480000001800408D
:1039A000000D002000E100E02939000000B583B0DF
:1039B00001AB80221A700A785A704A789A708A7815
:1039C000DA701900014B984703B000BD254A00008A
:1039D00010B5490840230024814202D2180010BDCE
:1039E0001C00091A631C9BB28842F9D94023FF2CA2
:1039F000F4D814800023F1E7F0B5DE4657464E4672
:103A00004546E0B589B00C00059212AA1178050070
:103A10004D434022A54207D9100009B03CBC904656
:103A20009946A246AB46F0BD002B55D102000800D6
:103A30000021634DA8478346260000270023002469
:103A400000930194002200233F2020218C461F393F
:103A50000296039714E06446241A0D00E540A84638
:103A600015E0029C039D121BAB414D46009E019F39
:103A700035433C00464634430095019401381DD33C
:103A8000202464420419E6D40D00A540A8460C0089
:103A90008440A14692185B4114001D0046465F46D3
:103AA0003E4203D00E00264332002B00029C039DB1
:103AB0009D42E3D8D5D19442E0D8D2E70022012339
:103AC00000980199121A8B411900130C0A041A4329
:103AD000059B1A8000229FE70022012BF8D1630F7B
:103AE0000493E30098460A0000230021344CA047C9
:103AF00004000D0000239C46069320339B460126BC
:103B00006346079348E05946C91B3000C8408246C7
:103B100010E000980199121A8B410299484601431E
:103B20000291013F25D3202149427918EBD430007E
:103B3000884082463100B940894692185B411000A6
:103B4000190044464D462C40A4465446049D2C4042
:103B5000A246644655462C4303D034000443220059
:103B60000B00009801999942DBD8D2D19042D8D865
:103B7000CFE7009C019D0299079A8B1ADB08114937
:103B80008B4214D9069B0133DBB219000693130054
:103B900001330793082908D0002302930022002351
:103BA0003F21009401950F00BDE7402234E74022F9
:103BB0000699082900D12FE74A031A4388E7C0462F
:103BC000954E0000FF1F000010B582B004000E4BA0
:103BD0001B78002B07D0002905D10B4B5B78834263
:103BE00010D01D200CE001A90C701320074B984742
:103BF0001320074B9847044B5C7001221A70002079
:103C000002B010BD0020FBE7200A0020FD480000A4
:103C100071480000404B984231D00AD93F4B98423E
:103C20004DD03F4B98425AD03E4B984237D000205F
:103C300070473D4B98420CD03C4B9842F7D101293C
:103C400017D000295DD0022915D0032915D00020F6
:103C5000EEE7012907D0002951D0022905D0032918
:103C600005D00020E4E73248E2E73248E0E7324896
:103C7000DEE73248DCE73248DAE73248D8E70129A4
:103C800007D000293FD0022905D0032905D0002004
:103C9000CEE72D48CCE72D48CAE72D48C8E70129D3
:103CA00007D0002931D0022905D0032905D00020F2
:103CB000BEE72848BCE72848BAE72848B8E7012902
:103CC00007D0002923D0022905D0032905D00020E0
:103CD000AEE72348ACE72348AAE72348A8E7012931
:103CE00007D0002915D0022905D0032905D00020CE
:103CF0009EE71E489CE71E489AE71E4898E71E4824
:103D000096E7032094E71D4892E71D4890E71D4879
:103D10008EE71D488CE7C0460010004200180042A4
:103D2000001C00420014004200080042000C004247
:103D30000300050003000600030007000300010064
:103D400003001E0003001F000300090003000A0017
:103D500003000B0003001100030012000300130016
:103D600003000D0003000E0003000F000300170006
:103D700003001800030019000300040003000800FA
:103D80000300100003000C000300160030B587B0DC
:103D90000B4B6A4632CB32C232CB32C2009B8342DB
:103DA0000BD001239A0069465258824206D0013353
:103DB000062BF7D1002007B030BD0023D8B2FAE7B8
:103DC000448D000070470000F0B50A4B1B78002BB3
:103DD0000CD1094F094E0A4D0024DE515A191460C6
:103DE0000433182BF9D10122024B1A708000024BC8
:103DF000C150F0BD220A0020240A0020C53D000069
:103E0000400D002000B583B009236A4613700133CA
:103E10005370013393700133D37001331371013345
:103E20005371034B98476B46185603B000BDC0460C
:103E30008D3D000010B5024B1B680020984710BD57
:103E4000240A002010B5024B5B680120984710BD82
:103E5000240A002010B5024B9B680220984710BD31
:103E6000240A002010B5024BDB680320984710BDE0
:103E7000240A002010B5024B1B690420984710BD8E
:103E8000240A002010B5024B5B690520984710BD3D
:103E9000240A0020F0B5DE4657464E464546E0B5BA
:103EA00091B005000C00160029600800BB4B984734
:103EB000020023680520DB0706D511B03CBC904604
:103EC0009946A246AB46F0BD236817309B07F4D451
:103ED000B349086A971C0123BB4003430B620FA937
:103EE0002D27F35D0B701432D3B202931800AD4B43
:103EF00098470298AC4B9847F05D0021AB4B984730
:103F0000F37A6B712423F35CAB712523F35CEB71C3
:103F1000F37E2B72337F6B722B68984618009F4B91
:103F20009847143000220E2306A98C4663441A8059
:103F3000328A02928023DB019A4200D19CE00FD9A1
:103F4000C023DB01029A9A4200D190E080231B0239
:103F50009A4200D01DE1032306930023079308E053
:103F600080239B019A4200D013E1102306930F3B5C
:103F7000079333680593F3689B4673690393337E15
:103F800004932623F35C9A4673689946002B00D16C
:103F90009EE080235B05994500D182E0737E002B73
:103FA00002D0B37E424693732A68029FD369002BE6
:103FB000FCD10E3306AA944663441B884246938183
:103FC000059B5A461343039A13434A4613431F4320
:103FD000049B1B021F4353465B071F432723F35CCD
:103FE000002B01D104331F43737E9B02327F5202A8
:103FF0001343727F120213432422B25C5204134310
:104000002522B25C12041343F17A19433389FF2B42
:1040100000D181E080225204174319432C23F35C22
:10402000002B03D1624B9B789B0701D580231F4354
:104030002A68D369002BFCD1434659602A68D369AA
:10404000002BFCD143461F600EAB80221A70002269
:104050005A70DA709A70336B0A93736B0B93B36B6D
:104060000C93F36B02930D9300270AAE63E00823D1
:104070000693073B07937CE733680593F3689B46F9
:1040800073690393337E04932623F35C9A46736823
:104090009946002B18D080235B05994501D000205C
:1040A00025E02723F35C002B00D077E7336A1F005D
:1040B000C0B2404B984701000E2206AB9C466244BA
:1040C00038003D4B984712E00823069300230793DE
:1040D0002723F35C002B0ED0069B0093079B0E2238
:1040E00006A98C466244B16A306A344FB84700284A
:1040F00000D0E2E652E7336A1F00C0B22D4B98476A
:104100000100069B0093079B0E2206A8844662448A
:1041100038002A4FB847EAE7F37E002B00D17DE74D
:104120008023DB041F4379E72000254B984707E0F5
:104130000137042F0DD0F9B2BB0098590028F3D0F5
:10414000431CF5D00EA90870000CC0B21D4B984757
:10415000EEE70023EB602B616B61AB61EB612B62DF
:10416000AB626B620022EB85AB853033EA540133DE
:10417000EA540133EA540133EA542868074B98475C
:1041800004001149114B9847A400114BE550002041
:1041900093E61023069300230793EAE68D3D000083
:1041A00000040040FD48000071480000C93B0000C9
:1041B0000020004119490000D1390000F939000000
:1041C000153C0000254A000011430000C93D0000D5
:1041D000400D0020C2791C23002A01D1180070472D
:1041E000C28D92B2173B002AF8D10368DA69002A1F
:1041F000FCD1198502211A7E0A42FCD00023EDE78A
:1042000082791C23002A01D118007047828D92B256
:10421000173B002AF8D10268107E4007F4D5D36915
:10422000002BFCD1538BDBB2980621D0980703D525
:10423000022353831833E7E7580703D50423538336
:104240001A33E1E7D80703D5012353831233DBE7A1
:10425000D80605D5538B10210B4353834223D3E754
:104260009B0605D5538B20210B4353834123CBE77A
:10427000138D0B800023C7E7F0B5D64600B584B098
:10428000040001911720002A03D104B004BC924617
:10429000F0BDA3790530002BF7D02668013A93B220
:1042A0009A460025042719E0002302AAD380911D15
:1042B0002000154B98470028E7D1691C89B202AB52
:1042C000DB88019A53556279012A14D00D005346B8
:1042D000013B9BB29A460D4B9A45D6D0337E3B426A
:1042E000E2D10A4B327E3A42DED1012B09D0013BAA
:1042F000002BF7D1D8E70235ADB21B0A019A53540F
:10430000E5E71220C1E7C04601420000FFFF0000C0
:10431000F8B58000674BC5582C68E369002BFCD1C9
:10432000237EA67D1E403023EB5C3122AF5C1F4014
:10433000F30722D5EB8D9BB2002B1CD0AA6A137811
:10434000DBB2511CA962697901290ED09BB2DB0551
:10435000DB0D2385EB8D013B9BB2EB85002B0CD154
:10436000013323750133A37507E0517809020B432C
:104370000232AA62EBE701232375B30706D50223B5
:10438000237500223133EA54FB071CD473076FD521
:10439000AB8D9BB2002B69D0638BDBB21A0716D4AE
:1043A0003F221340002B3ED09A0713D51A22322306
:1043B000EA54638B183A134363837B0758D528006C
:1043C0006B69984754E02800EB689847DEE737228E
:1043D0001340E7E75A0707D51E223223EA54638BBE
:1043E0001A3A13436383E8E7DA0707D51322322327
:1043F000EA54638B123A13436383DEE7DA0607D588
:1044000042223223EA54638B323A13436383D4E764
:1044100020221A42D1D021323223EA54638B213A2E
:1044200013436383C9E7238DDB05DB0DDAB2696AC9
:104430000A706A6A511C69626979012910D0AB8DD2
:10444000013B9BB2AB85002B12D1043323750022B4
:104450002E33EA54BB070BD528002B69984707E099
:104460001B0A53706B6A01336B62E8E70423237500
:10447000F30604D5102323752376FB060ED4B3066A
:1044800004D52023237523763B070BD4330704D5AB
:10449000082323752376BB0608D4F8BD2800EB69F2
:1044A0009847ECE72800AB699847EFE72B6A2800AC
:1044B0009847F2E7400D002010B5082803D8800087
:1044C0001B4B1B589F46002030E01A4B18692DE00B
:1044D000194B1B6A9B059B0F1848D84026E0154BCB
:1044E000586923E0134B1B6800209B071ED5124917
:1044F0001022CB681A42FCD00E4B1B685B0701D41C
:104500000F4813E000200F4B98470A4B9B681B0491
:104510001B0C58430AE05023074AD35C00205B077A
:1045200004D5044BD86801E08020000210BDC046CD
:104530005C8D00003C0A00200008004000127A0058
:10454000006CDC021949000070B50C490B6A047854
:10455000857840780122104080014026B343034310
:104560002A40D201802083431343032222401202B7
:104570000348034013430B6270BDC046000800406F
:10458000FFFCFFFF082803D88000254B1B589F46DF
:10459000172044E0234A136A02210B4313620020D0
:1045A0003DE0204A936902210B439361002036E0ED
:1045B0001C4A138A02210B43138200202FE0194A60
:1045C000938A02210B439382002028E016490B684E
:1045D000022213430B60134B9A8419000E32CB68EE
:1045E0001A42FCD0104A91680E4BD96252689A6206
:1045F00000229A8419001032CB681A42FCD00A4B70
:104600001B689BB2074A9384002008E005494422B6
:104610008B5C022003438B54002000E00020704795
:10462000808D0000000800403C0A002030B585B0B5
:10463000C222D2001A4B9A601A4A53681E218B4339
:10464000536001236A4613700024174DE0B2694697
:10465000A8470134252CF9D103A800244470012572
:1046600085700470114B98470620114B9847114BE9
:104670009847114B1C725C729C72DC7201956B4600
:104680005C7006236A4613701472547269460020E7
:104690000A4B984700200A4B984705B030BDC046EA
:1046A0000008004000400041FD480000494500006E
:1046B00085450000C546000000040040E9460000B2
:1046C000A1470000064A936908210B439361012228
:1046D000044B1A7019000B781342FCD17047C04686
:1046E00000040040000C004070B5060004000D7886
:1046F0002D0205434B78002B02D08023DB021D43A3
:104700004B7A002B02D080231B031D4348680128ED
:1047100010D9431E184234D1022830D90223002276
:1047200001325B009842FBD812023243140080230E
:104730005B031D430B7A002B02D080239B031D4398
:10474000134A53785BB2002BFBDB124B9847124B9A
:104750001E700F4A53785BB2002BFBDB0C4B9C6046
:104760001A0053785BB2002BFBDB094A53688021A7
:1047700049020B401D435560084B984770BD00220D
:10478000D2E70402344380239B021D43D2E7C04694
:10479000000C00402D380000080C00406D3800006F
:1047A00010B504000B4A53785BB2002BFBDB0A4BBD
:1047B00098470A4B1C70074A53785BB2002BFBDB0F
:1047C000044A516880235B020B435360044B9847B3
:1047D00010BDC046000C00402D380000040C004005
:1047E0006D38000070B504001A4A53785BB2002B94
:1047F000FBDB194B9847194B1C70164A53785BB278
:10480000002BFBDB134E7068C004C00E144B98479E
:104810000500124B1C707668F602F60F114B1C70E7
:104820000C4A53785BB2002BFBDB0A4B9C682402DA
:10483000240C0D4B9847002E07D1012C07D92100DD
:1048400028000A4B9847050001E00134E5402800A4
:1048500070BDC046000C00402D380000040C004024
:10486000B9440000080C00406D3800007D4D000088
:1048700010B50400064B9847064B1C70064A538837
:104880008021C9010B435380044B984710BDC0469B
:104890002D380000020C0040000C00406D38000074
:1048A00010B504000F4B98470F4B1C700F4A5388EC
:1048B0001B05180F53880E490B40538053880D4930
:1048C0000B40538011008022D2014B881342FCD14F
:1048D00006494A8803020648024013434B80064BB0
:1048E000984710BD2D380000020C0040000C00401D
:1048F000FFF0FFFFFFBFFFFF6D38000010B50C7821
:1049000024020443024B9847A4B2024B5C8010BDC2
:10491000A1480000000C004010B50400064B984769
:10492000064B1C70064B5C882405240F054B9847EA
:104930002000054B984710BD2D380000020C0040A8
:10494000000C00406D380000E5470000002808DB3F
:1049500001238340C022520006498B5000231800D7
:1049600070471723421CFAD180229204024B5A60EE
:104970000023F4E700E100E000ED00E030B5D3787B
:10498000002B35D11378802B29D01B06802464029C
:10499000234354780225AC4306D19478002C20D1CF
:1049A0008024A402234341605478013C012C1CD98B
:1049B0000D042D0CA024E4052C431C4384620D0C33
:1049C000D02424062C431C438462D478002C22D1AA
:1049D0005B031CD59378012B1ED0416117E00023A7
:1049E000D7E7C024E4022343DDE70D4C2340DFE793
:1049F00041600C04240CA023DB05234383620C0CD0
:104A0000D0231B0623438362D378002B03D1537832
:104A1000013B012B02D930BD8161F8E78160FAE7E3
:104A2000FFFFFBFF10B50A00C1090023002904D1D4
:104A30004309DB0105498C4663441F2420400121C2
:104A400081401800024B984710BDC0460044004109
:104A50007D4900007047000010B5054B9847054B95
:104A60009847054B9847054B9847054B984710BD0D
:104A70002D4600009D380000554A000041390000D5
:104A8000554A000070B58000164BC45823689D7BC2
:104A9000227E637E13401D40EB0706D4AB070BD488
:104AA000EB0610D4AB0615D470BD2000A368984760
:104AB000012322689373F1E72000E36898470223FB
:104AC00022689373ECE7200023699847102322683B
:104AD0009373E7E7200063699847236820229A735D
:104AE000E2E7C046580D002010B50020014B984762
:104AF00010BDC046854A000010B50120014B984703
:104B000010BDC046854A000010B50220014B9847F1
:104B100010BDC046854A000010B50320014B9847E0
:104B200010BDC046854A000010B50420014B9847CF
:104B300010BDC046854A0000FEE70000F8B52A4ACD
:104B40002A4B9A4211D01A00294B9A420DD2294A77
:104B500003339B1A9B0801339B0000222348224900
:104B60008C58845004329A42FAD1234A234B9A42F9
:104B70000AD2D34321495B1803218B4304339B188A
:104B8000002102C29342FCD11D4AFF211D4B8B43E1
:104B90009360FD3990235B001B4AD1501B4AD378A8
:104BA0000325AB4302242343D370D3780C27BB43A4
:104BB00008263343D370164B987B30229043202233
:104BC00010439873997BB943314399739A7BAA43F5
:104BD00022439A730F4A536880210B4353600E4B54
:104BE00098470E4B9847FEE7DC8E0000000000203F
:104BF0007804002004000020780400207C0D0020B0
:104C000000ED00E000000000007000410050004195
:104C10000048004100400041B1670000F14C000035
:104C2000F0B5C64600B50C00904600280FD1002A0A
:104C300011DD8F18094E0A4D306821002B68984706
:104C40000134BC42F8D1404604BC9046F0BD01237B
:104C50005B429846F7E78046F5E7C046740D0020B2
:104C60006C0D0020F0B5C64600B50E0015000138E9
:104C7000022810D8002A11D000240C4B98460C4F63
:104C800043461868315D3B689847002808DB0134CB
:104C9000A542F5D106E00124644203E0140001E0DE
:104CA00001246442200004BC9046F0BD740D002035
:104CB000700D00200300064A1268002A04D0044A3E
:104CC0001068C318136070470249014A1160F6E783
:104CD000540A0020802D002001204042704780238C
:104CE0009B014B60002070470120704700207047F7
:104CF00070B582B0184B9847184B98470122184B53
:104D00001A70BFF35F8F62B6164B98470C20164C93
:104D1000A047164B98472420A0476B46DC1D002671
:104D2000134D07E0134B5978C9B2481CC0B25870F4
:104D30005B189A70267001212000A8470028F9DD31
:104D40002078094B984722780D2A01D00A2AE9D108
:104D5000094B9847EEE7C046594A000095370000D6
:104D600010040020D9160000096A0000891800000C
:104D700029180000E00A00209519000000224308CD
:104D80008B4274D303098B425FD3030A8B4244D313
:104D9000030B8B4228D3030C8B420DD3FF22090255
:104DA00012BA030C8B4202D31212090265D0030B14
:104DB0008B4219D300E0090AC30B8B4201D3CB030A
:104DC000C01A5241830B8B4201D38B03C01A52414C
:104DD000430B8B4201D34B03C01A5241030B8B424E
:104DE00001D30B03C01A5241C30A8B4201D3CB0239
:104DF000C01A5241830A8B4201D38B02C01A52411E
:104E0000430A8B4201D34B02C01A5241030A8B4220
:104E100001D30B02C01A5241CDD2C3098B4201D338
:104E2000CB01C01A524183098B4201D38B01C01AB6
:104E3000524143098B4201D34B01C01A524103092D
:104E40008B4201D30B01C01A5241C3088B4201D3DC
:104E5000CB00C01A524183088B4201D38B00C01A89
:104E6000524143088B4201D34B00C01A5241411AB0
:104E700000D20146524110467047FFE701B50020BD
:104E800000F006F802BDC0460029F7D076E770476B
:104E90007047C046F0B5CE46474615042D0C2E008F
:104EA00080B50704140C3F0C9946030C7E435D4308
:104EB000674363437F19340CE4199C46A54203D928
:104EC00080235B029846C4444B4651434343360417
:104ED000360C250C24046544A419591849192000DE
:104EE0000CBC90469946F0BDF8B54546DE4657469F
:104EF0004E460C03E0B54E00C90F88460D00610A0E
:104F0000440F0C43C70019035800DB0F9B464B0AA4
:104F1000510F0B43760D400D1900D200D84500D13A
:104F2000AEE0351A002D00DCF6E000280FD1134367
:104F300000D1DBE06B1E002B00D037E1BA1A97429C
:104F4000BF41641A7F42E41B0126170024E0C64BD0
:104F50009E424DD080231B041943382D00DD07E10C
:104F60001F2D00DD38E12020431B9A460B005046E0
:104F70008340994613004846EB40184303005046CF
:104F80008240501E8241E9401A43BA1A611A974280
:104F9000A441170064420C1B230262D56402650A17
:104FA000002D00D1DFE0280001F0E4FB0300083B06
:104FB0001F2B00DDD2E020223C00D21A9D40D440BD
:104FC0009F4025439E4200DDC4E09E1B731C1F2BA7
:104FD00000DDF1E0202238002900D21AD8409140AB
:104FE00097402C000143781E8741DC4000260F4388
:104FF0007B0709D00F233B40042B05D03B1DBB4250
:10500000BF417F42E4191F0023022CD5964B013685
:105010009E4200D19AE04546944BFF081C40600731
:10502000760564020743240B760D00212403230B2D
:105030000C0D8F4A24051C431440330523435B00A9
:10504000ED075B082B43380019003CBC904699469D
:10505000A246AB46F8BD6446044300D111E2040009
:1050600067467B07C6D145466007FF080743E4084B
:105070007D4B9E4230D024037605240B760DD4E779
:10508000331A9A46002B78DD002831D076488642C4
:10509000AED08020000401435346382B00DCE9E009
:1050A0000A43511E8A410021D219BA42BF4109194F
:1050B0007C4217000C192302D3D56B4B01369E425C
:1050C00000D13AE10120694B1C407B0807401F4397
:1050D000E007074364088BE723003B4300D1CBE1A3
:1050E0008022120314432403240B9EE72E007FE743
:1050F0000800104300D1B4E0581E002800D0DEE0C4
:10510000BA18BA429B4164185B42E41817000126A2
:105110002302A6D50226D5E7002D6ED1701C4005CE
:10512000400D012800DCF9E0B81A8446874280412E
:10513000E51A40422D1A280200D489E0D71BBA4252
:1051400092411C1B5242A51AD84629E74546002425
:1051500000276AE7454CF61A2C4049E73D002838FD
:10516000854000272EE7380001F004FB20301DE7C2
:105170000A43511E8A41002107E7002B00D0F3E0CB
:10518000701C43055B0D012B00DCADE0364B9842F3
:1051900000D1D1E0BA18BA42BF4164187F42E41985
:1051A000E707520817436408060021E72E488542A6
:1051B00000D193E01D00D0E629001F3EF140202BD6
:1051C00000D18DE04022D31A9D402F437D1EAF4178
:1051D00000240F43002644E72B000800203BD84062
:1051E0000300202D00D17DE04020451BA9400A434B
:1051F000511E8A4100211A43C7E6002E50D01A4E94
:10520000B04257D080266B429946360434434B4611
:10521000382B00DDD6E01F2B00DD35E12026F51A06
:105220002600AE40B2463E00DE40AC463500564653
:105230002E436546AF407D1EAF41DC403743D71B50
:10524000BA4292410C1B5242A41A0600D846A3E669
:10525000644667462C4300D0A2E6002500260027BE
:1052600006E71E00C4E6C046FF070000FFFF7FFF01
:10527000FFFF0F801F2B63DC2020C31A080098401B
:105280009C46834653461000D840030058461843B6
:1052900063469A40531E9A4153460243D94003E75E
:1052A00026003E4306D0EB439946002BC7D0944ED0
:1052B000B042ACD10C0017000600D84698E6904BDF
:1052C0009A450BD08246E7E6002800D09EE0180001
:1052D000104300D1E9E01C001700D846884E87E64D
:1052E000002572E7002182E723003B43002E00D017
:1052F000ABE0002B00D1E7E00B00134300D177E6D1
:10530000BA18BA42BF4164187F42E419230200D49C
:10531000F2E07C4B17001C40060069E62000384391
:10532000002ED1D100285BD11C00144300D1A8E08D
:105330001C001700D8465BE606000024002797E60D
:1053400050460B002038C34099465346202B00D1CD
:1053500095E0402350461B1A99400A43511E8A414A
:105360004B4600211A439FE6002E30D126003E43D3
:1053700067D0DB439A46002B1CD0614EB04260D010
:105380005346382B00DD96E01F2B00DD9FE02026E2
:10539000F31A26009E409C46B34653463E00DE402C
:1053A00033005E461E4363469F407B1E9F4153462B
:1053B000DC403743BF189742924164185242A41808
:1053C000060078E627437C1EA741002437E74C4EB1
:1053D000B04236D080265B4236049A463443CFE74B
:1053E0001800104300D103E6B81A84466745AD4162
:1053F000E01A6D42401B050200D42CE6D71BBA42CE
:1054000092411C1B5242A41AD846F1E518001043E1
:1054100000D163E7F808670707438020E40800032A
:10542000044208D0DD08054205D1D20859071143CE
:105430000F002C00D8467B0FE4001C43FF00304EC9
:10544000D6E50C0017000600D2E5002B38D00B0083
:10545000134300D142E7F808670707438020E408B8
:1054600000030442E7D0CB080342E4D1D208490745
:1054700011430F001C00DEE700270024D5E50021C2
:105480006BE700250027F3E54E462500203EF5405A
:105490004B462E00202B2DD04025ED1AAC40274343
:1054A0007C1EA74100243743C9E68024002524033D
:1054B000134E0027DCE527437C1EA741002479E733
:1054C0000C0017000E4E93E50C00170090E55646B1
:1054D0002300203EF34099465346202B0ED0402314
:1054E00056469B1B9C4027437C1EA7414B460024ED
:1054F0001F435FE70024D2E71700B2E50024F2E77C
:10550000FF070000FFFF7FFFF0B557464546DE4628
:105510004E46E0B54C000E0387B0834692461D0010
:105520008046360B640DCF0F002C4FD06F4B9C4242
:1055300035D08023420F1B04F600134333439946B2
:10554000C30098466A4B00269C460023644403939C
:105550002B031B0B9B466B00ED0F50465B0D01951B
:105560005ED0624A934253D05A46D1008022400F07
:10557000120402430A4393465246D1005C4A9446C1
:10558000002263443800684084460290E41A1643BF
:105590000F2E00D9B4E0574BB6009B599F4603002D
:1055A000334399466CD1002398460233082603936F
:1055B000CEE7CB464146039A0197022A65D1019B6B
:1055C0004A4C9C460023002298466BE0030033437C
:1055D00099464ED0002E00D1BCE1300001F0CAF84F
:1055E00003000B3B1C2B00DDACE11D22D31A5A46F5
:1055F0000100DA4008398E401300334399465B4678
:105600008B40984600233C4C0026241A03939FE7C6
:1056100051465A46114329D1002293460232B1E73E
:10562000594601431ED05B46002B00D19EE15846EF
:1056300001F0A0F803000B3B1C2B00DD8FE1020002
:105640005946083A91408B461D21CB1A5146D94004
:105650000B0059460B4351469B469140264B002276
:105660001B1A8FE7002301229B468BE7514603223A
:1056700088E700239846013304260024039367E754
:105680000323B14603930C2662E7032A00D15CE2B0
:10569000019B012A00D0E4E113409C460023002432
:1056A0000022984600211203130B0A0D12051A431B
:1056B0002305124C40462240134362465B00D2074A
:1056C0005B081343190007B03CBC90469946A246BC
:1056D000AB46F0BD002380229C4612039846034C43
:1056E000E0E70023014C00229846DBE7FF070000BB
:1056F00001FCFFFFA48D00000DFCFFFFFFFF0F80EA
:10570000D94500D939E100D134E1002346464D4660
:105710009A46013C5B460A0E1B021A430B02170C09
:10572000039313041B0C3900280090460193FFF7E4
:1057300025FB0200019B83465A432800390091460D
:10574000FFF7A2FB350C09040D43A9450DD95B46B3
:105750004544013BA84500D93AE1A94500D837E1C5
:1057600002235B429C464544E3444B46EB1A390016
:1057700018000493FFF702FB019B05004343390027
:1057800004989946FFF780FB330409041B0C0B4374
:10579000994509D943446A1E984500D91AE19945AB
:1057A00000D817E1023D43444A469B1A5A46120468
:1057B0002A4303999346100C0A0C914609045A4651
:1057C000090C4E460D001204120C4543059151433D
:1057D0007243704352190E0CB218954203D98025BA
:1057E0006D02AC466044150C09041204090C28181B
:1057F0005218834200D2CEE000D1C8E01D1A5346B1
:105800009E1AB24592415242AB1A9A46984500D12F
:1058100017E139001800FFF7B1FA019B0500434377
:10582000390050460493FFF72FFB04980B04310C0A
:105830001943884209D941446B1E884500D907E1C4
:10584000884200D804E1023D4144049BCB1A180071
:1058500039000493FFF792FA019B824643433900D3
:1058600004980193FFF710FB01980B043104090C15
:10587000194388420DD953464144013B884500D91C
:10588000E8E0884200D8E5E002235B429C464144C0
:10589000E244019B2D04CE1A51462943059D4F46F3
:1058A0002A000B04080C1B0C5A4345437B437843E6
:1058B0005B19170CFB189D4203D980256D02AC467D
:1058C00060441D0C12041B04120C28189B188642FD
:1058D00000D293E000D18EE001231943A04BE318DE
:1058E000002B00DC99E04A0700D09EE05A46D20126
:1058F00006D55A469B4B1A4080239346DB00E3189B
:10590000994A934268DD0123029A984C1A40002379
:10591000944698460022C5E680224B461203134265
:105920000AD05B46134206D11A431203120BAC464F
:1059300088468E4CB6E64B461A431203120BBC4601
:105940008A4CAFE603005A46283B9A400023914612
:10595000984657E6584600F00DFF203040E6030019
:105960005246283B9A400021934677E600F002FF1A
:1059700020305FE6884500D2C7E64B46DE075D086B
:1059800043465B081E434346DB079A46C2E60025B2
:10599000924500D333E7039E5946B446E244B245EC
:1059A000AD416D424544EB180139984507D2984204
:1059B00000D97FE000D1BCE01D1A8B461FE7984557
:1059C000FAD1039D5545F2D943468B461D1A16E779
:1059D0009B46CAE61500E7E65A46C90852070A433D
:1059E0005B0590465C0D5A4601230299520219400C
:1059F000120B8C4656E6002B00D16FE746444A1E38
:105A0000B04529D91100864200D065E7039A934238
:105A100000D061E762E7012149420120C21A382A19
:105A200021DD029B03409C4638E60F220A40042AEF
:105A300000D15BE70A00111D91429241524293440A
:105A400054E7474BE318002BE5DD01225242F2E711
:105A50001D00FAE69A461CE7B04239D86ED0110014
:105A60003AE702933AE71F2A3CDC20239B1A0C00FA
:105A70005846994098404B1E99415B46D440D340CC
:105A8000204308431A00430709D00F230340042B87
:105A900005D00100081D88429B415B42D2181302C9
:105AA0003AD50123029A01241A40002394469846CD
:105AB0000022F7E5022149428C46039DE344AC46AF
:105AC000E244AA45AD416D424544ED182D1A96E6D3
:105AD0008A1E03994D008D428941494241447618FE
